{
  "_format": "hh-sol-artifact-1",
  "contractName": "Report",
  "sourceName": "contracts/Report.sol",
  "abi": [
    {
      "inputs": [
        {
          "internalType": "string",
          "name": "_message",
          "type": "string"
        }
      ],
      "name": "ReportCrime",
      "outputs": [],
      "stateMutability": "nonpayable",
      "type": "function"
    },
    {
      "inputs": [],
      "name": "viewReports",
      "outputs": [
        {
          "components": [
            {
              "internalType": "uint256",
              "name": "timestamp",
              "type": "uint256"
            },
            {
              "internalType": "string",
              "name": "message",
              "type": "string"
            },
            {
              "internalType": "address",
              "name": "from",
              "type": "address"
            },
            {
              "internalType": "bool",
              "name": "solved",
              "type": "bool"
            }
          ],
          "internalType": "struct Report.report[]",
          "name": "",
          "type": "tuple[]"
        }
      ],
      "stateMutability": "view",
      "type": "function"
    }
  ],
  "bytecode": "0x608060405234801561001057600080fd5b50610ab0806100206000396000f3fe608060405234801561001057600080fd5b50600436106100365760003560e01c806312beb00f1461003b57806355f3f42214610059575b600080fd5b610043610075565b604051610050919061056b565b60405180910390f35b610073600480360381019061006e91906106d6565b6101e1565b005b60606000805480602002602001604051908101604052809291908181526020016000905b828210156101d85783829060005260206000209060030201604051806080016040529081600082015481526020016001820180546100d69061074e565b80601f01602080910402602001604051908101604052809291908181526020018280546101029061074e565b801561014f5780601f106101245761010080835404028352916020019161014f565b820191906000526020600020905b81548152906001019060200180831161013257829003601f168201915b505050505081526020016002820160009054906101000a900473ffffffffffffffffffffffffffffffffffffffff1673ffffffffffffffffffffffffffffffffffffffff1673ffffffffffffffffffffffffffffffffffffffff1681526020016002820160149054906101000a900460ff16151515158152505081526020019060010190610099565b50505050905090565b600073ffffffffffffffffffffffffffffffffffffffff163373ffffffffffffffffffffffffffffffffffffffff1603610250576040517f08c379a0000000000000000000000000000000000000000000000000000000008152600401610247906107dc565b60405180910390fd5b600060405180608001604052804281526020018381526020013373ffffffffffffffffffffffffffffffffffffffff1681526020016000151581525090806001815401808255809150506001900390600052602060002090600302016000909190919091506000820151816000015560208201518160010190816102d491906109a8565b5060408201518160020160006101000a81548173ffffffffffffffffffffffffffffffffffffffff021916908373ffffffffffffffffffffffffffffffffffffffff16021790555060608201518160020160146101000a81548160ff021916908315150217905550505050565b600081519050919050565b600082825260208201905092915050565b6000819050602082019050919050565b6000819050919050565b6103808161036d565b82525050565b600081519050919050565b600082825260208201905092915050565b60005b838110156103c05780820151818401526020810190506103a5565b60008484015250505050565b6000601f19601f8301169050919050565b60006103e882610386565b6103f28185610391565b93506104028185602086016103a2565b61040b816103cc565b840191505092915050565b600073ffffffffffffffffffffffffffffffffffffffff82169050919050565b600061044182610416565b9050919050565b61045181610436565b82525050565b60008115159050919050565b61046c81610457565b82525050565b600060808301600083015161048a6000860182610377565b50602083015184820360208601526104a282826103dd565b91505060408301516104b76040860182610448565b5060608301516104ca6060860182610463565b508091505092915050565b60006104e18383610472565b905092915050565b6000602082019050919050565b600061050182610341565b61050b818561034c565b93508360208202850161051d8561035d565b8060005b85811015610559578484038952815161053a85826104d5565b9450610545836104e9565b925060208a01995050600181019050610521565b50829750879550505050505092915050565b6000602082019050818103600083015261058581846104f6565b905092915050565b6000604051905090565b600080fd5b600080fd5b600080fd5b600080fd5b7f4e487b7100000000000000000000000000000000000000000000000000000000600052604160045260246000fd5b6105e3826103cc565b810181811067ffffffffffffffff82111715610602576106016105ab565b5b80604052505050565b600061061561058d565b905061062182826105da565b919050565b600067ffffffffffffffff821115610641576106406105ab565b5b61064a826103cc565b9050602081019050919050565b82818337600083830152505050565b600061067961067484610626565b61060b565b905082815260208101848484011115610695576106946105a6565b5b6106a0848285610657565b509392505050565b600082601f8301126106bd576106bc6105a1565b5b81356106cd848260208601610666565b91505092915050565b6000602082840312156106ec576106eb610597565b5b600082013567ffffffffffffffff81111561070a5761070961059c565b5b610716848285016106a8565b91505092915050565b7f4e487b7100000000000000000000000000000000000000000000000000000000600052602260045260246000fd5b6000600282049050600182168061076657607f821691505b6020821081036107795761077861071f565b5b50919050565b600082825260208201905092915050565b7f496e76616c696420416464726573730000000000000000000000000000000000600082015250565b60006107c6600f8361077f565b91506107d182610790565b602082019050919050565b600060208201905081810360008301526107f5816107b9565b9050919050565b60008190508160005260206000209050919050565b60006020601f8301049050919050565b600082821b905092915050565b60006008830261085e7fffffffffffffffffffffffffffffffffffffffffffffffffffffffffffffffff82610821565b6108688683610821565b95508019841693508086168417925050509392505050565b6000819050919050565b60006108a56108a061089b8461036d565b610880565b61036d565b9050919050565b6000819050919050565b6108bf8361088a565b6108d36108cb826108ac565b84845461082e565b825550505050565b600090565b6108e86108db565b6108f38184846108b6565b505050565b5b818110156109175761090c6000826108e0565b6001810190506108f9565b5050565b601f82111561095c5761092d816107fc565b61093684610811565b81016020851015610945578190505b61095961095185610811565b8301826108f8565b50505b505050565b600082821c905092915050565b600061097f60001984600802610961565b1980831691505092915050565b6000610998838361096e565b9150826002028217905092915050565b6109b182610386565b67ffffffffffffffff8111156109ca576109c96105ab565b5b6109d4825461074e565b6109df82828561091b565b600060209050601f831160018114610a125760008415610a00578287015190505b610a0a858261098c565b865550610a72565b601f198416610a20866107fc565b60005b82811015610a4857848901518255600182019150602085019450602081019050610a23565b86831015610a655784890151610a61601f89168261096e565b8355505b6001600288020188555050505b50505050505056fea264697066735822122060bd16fdd23af9c6733f21a7db8b8b9eba0f39c80fe0f8a2de132351105e171964736f6c63430008110033",
  "linkReferences": {},
  "deployedLinkReferences": {}
}